:020000040800F2
:10000000000002205D7C000895710008A3710008C3
:10001000A9710008AF710008B57100080000000068
:10002000000000000000000000000000B15A0008BD
:10003000BB71000800000000F15C0008595D000879
:10004000AD7C0008AD7C0008AD7C0008AD7C0008EC
:10005000AD7C0008AD7C0008AD7C0008AD7C0008DC
:10006000AD7C0008AD7C0008AD7C0008AD7C0008CC
:10007000AD7C0008AD7C0008AD7C0008AD7C0008BC
:10008000AD7C0008AD7C0008AD7C0008AD7C0008AC
:10009000AD7C0008AD7C0008AD7C0008AD7C00089C
:1000A000AD7C0008AD7C0008AD7C0008AD7C00088C
:1000B000AD7C0008AD7C0008AD7C0008AD7C00087C
:1000C000AD7C0008AD7C0008AD7C0008AD7C00086C
:1000D000AD7C0008AD7C0008AD7C0008AD7C00085C
:1000E000AD7C0008AD7C0008AD7C0008AD7C00084C
:1000F000AD7C0008AD7C0008AD7C0008AD7C00083C
:10010000AD7C0008AD7C0008AD7C0008AD7C00082B
:10011000AD7C0008AD7C0008C9710008AD7C00080A
:10012000AD7C0008AD7C0008AD7C0008AD7C00080B
:10013000AD7C0008AD7C0008AD7C0008AD7C0008FB
:10014000AD7C0008AD7C0008AD7C0008DD710008C6
:10015000AD7C0008AD7C0008AD7C0008AD7C0008DB
:10016000AD7C0008AD7C0008AD7C0008AD7C0008CB
:10017000AD7C0008AD7C0008AD7C000800000000EC
:08018000AD7C0008AD7C000815
:1001900010B5054C237833B9044B13B10448AFF3C1
:1001A00000800123237010BDE0010020000000004A
:1001B000B07E000808B5034B1BB103490348AFF3F9
:1001C000008008BD00000000E4010020B07E0008AF
:1001D00053B94AB9002908BF00281CBF4FF0FF31AE
:1001E0004FF0FF3000F07AB9ADF1080C6DE904CEA4
:1001F00000F006F8DDF804E0DDE9022304B0704702
:100200002DE9F0478C460D460446089E002B51D13F
:100210008A4217466DD9B2FA82FEBEF1000F0BD0AA
:10022000CEF1200C01FA0EF520FA0CFC02FA0EF7C2
:100230004CEA050C00FA0EF44FEA174A250CBCFBF9
:10024000FAF81FFA87F90AFB18CC45EA0C4508FBB7
:1002500009F3AB420AD9ED1908F1FF3280F023818E
:10026000AB4240F22081A8F102083D44ED1AA4B24D
:10027000B5FBFAF00AFB105544EA054400FB09F906
:10028000A14509D9E41900F1FF3380F00A81A145A5
:1002900040F2078102383C44A4EB090440EA0840DC
:1002A0000021002E61D024FA0EF400233460736024
:1002B000BDE8F0878B4207D9002E54D0002186E894
:1002C00021000846BDE8F087B3FA83F1002940F029
:1002D0008E80AB4202D3824200F2FA80841A65EB30
:1002E00003050120AC46002E3FD086E81010BDE883
:1002F000F08712B90127B7FBF2F7B7FA87FEBEF114
:10030000000F34D1EB1B3A0C1FFA87FC0121B3FB21
:10031000F2F8250C02FB183345EA03450CFB08F301
:10032000AB4207D9ED1908F1FF3002D2AB4200F21F
:10033000D1808046ED1AA3B2B5FBF2F002FB105556
:1003400043EA05440CFB00FCA44507D9E41900F17D
:10035000FF3302D2A44500F2B8801846A4EB0C0487
:1003600040EA08409DE731463046BDE8F087CEF1CF
:10037000200405FA0EF307FA0EF720FA04F83A0CF7
:1003800025FA04F448EA0308B4FBF2F14FEA1845F1
:1003900002FB11441FFA87FC45EA044501FB0CF3FC
:1003A000AB4200FA0EF409D9ED1901F1FF3080F0EB
:1003B0008A80AB4240F2878002393D44EB1A1FFA33
:1003C00088F5B3FBF2F002FB103345EA034500FB6E
:1003D0000CF3AB4207D9ED1900F1FF386FD2AB42F5
:1003E0006DD902383D44EB1A40EA01418FE7C1F173
:1003F000200722FA07F88B4005FA01F448EA0303C4
:1004000020FA07FE4FEA134CFD404EEA040EB5FBFE
:10041000FCF94FEA1E440CFB19551FFA83F844EA15
:10042000054509FB08F4AC4202FA01F200FA01FAB0
:1004300008D9ED1809F1FF3043D2AC4241D9A9F1F6
:1004400002091D442D1B1FFA8EFEB5FBFCF00CFBB0
:1004500010554EEA054400FB08F8A04507D9E418FA
:1004600000F1FF3529D2A04527D902381C4440EAC3
:100470000940A4EB0804A0FB02894C45C6464D4642
:1004800015D312D056B1BAEB0E0364EB050404FA8F
:1004900007F7CB401F43CC40376074600021BDE8B4
:1004A000F0871846F8E69046E0E6C245EAD2B8EB97
:1004B000020E69EB03050138E4E72846D7E740461A
:1004C00091E78146BEE7014678E702383C4445E7BC
:1004D000084608E7A8F102083D442BE7704700BF33
:1004E00080B500AF0E4A0E4B1B6843F400731360D7
:1004F0000B4A0B4B1B6843F480631360084A084B9C
:100500001B6843F480731360032000F0F8F80020A8
:1005100006F0E6FD06F0B8FD0023184680BD00BFDA
:10052000003C024080B400AF064B1B781A46064BD5
:100530001B681344044A136000BFBD465DF8047B8A
:10054000704700BF00000020E443002080B400AFEB
:10055000034B1B681846BD465DF8047B704700BF1F
:10056000E443002080B584B000AF7860FFF7EEFF71
:10057000B8607B68FB60FB68B3F1FF3F05D0094BB7
:100580001B781A46FB681344FB6000BFFFF7DEFFD1
:100590000246BB68D21AFB689A42F7D300BF1037F5
:1005A000BD4680BD0000002080B485B000AF7860FB
:1005B0007B6803F00703FB600C4BDB68BB60BA6829
:1005C0004FF6FF031340BB60FB681A02BB6813437E
:1005D00043F0BF6343F40033BB60044ABB68D3609D
:1005E00000BF1437BD465DF8047B704700ED00E0A6
:1005F00080B400AF044BDB681B0A03F00703184606
:10060000BD465DF8047B704700ED00E080B483B028
:1006100000AF0346FB7197F90730002B0BDB09494C
:1006200097F907305B09FA7902F01F02012000FAFE
:1006300002F241F8232000BF0C37BD465DF8047B71
:10064000704700BF00E100E080B483B000AF034614
:100650003960FB7197F90730002B0ADB0D4997F9D8
:1006600007303A68D2B21201D2B20B4483F80023A9
:100670000AE00949FB7903F00F03043B3A68D2B260
:100680001201D2B20B441A7600BF0C37BD465DF89A
:10069000047B704700E100E000ED00E080B489B029
:1006A00000AFF860B9607A60FB6803F00703FB6194
:1006B000FB69C3F10703042B28BF0423BB61FB695B
:1006C0000433062B02D9FB69033B00E000237B6166
:1006D0000122BB6902FA03F35A1EBB681A407B6908
:1006E0009A4001217B6901FA03F3591E7B680B4094
:1006F000134318462437BD465DF8047B704780B528
:1007000082B000AF78607868FFF74EFF00BF08370F
:10071000BD4680BD80B586B000AF0346B9607A6043
:10072000FB7300237B61FFF763FF78617A68B96828
:100730007869FFF7B3FF024697F90F301146184664
:10074000FFF782FF00BF1837BD4680BD80B582B07D
:1007500000AF0346FB7197F907301846FFF756FFC5
:1007600000BF0837BD4680BD80B489B000AF786057
:10077000396000237B6100233B610023BB610023C0
:10078000FB616BE10122FB6902FA03F37B613B68C9
:100790001A687B6913403B613A697B699A4240F071
:1007A0005A813B685B68022B03D03B685B68122B65
:1007B00023D1FB69DA087B68083253F82230BB6129
:1007C000FB6903F007039B000F2202FA03F3DB43EC
:1007D000BA691340BB613B681A69FB6903F0070300
:1007E0009B0002FA03F3BA691343BB61FB69DA08A1
:1007F0007B680832B96943F822107B681B68BB61CB
:10080000FB695B00032202FA03F3DB43BA6913407E
:10081000BB613B685B6803F00302FB695B0002FAA3
:1008200003F3BA691343BB617B68BA691A603B681A
:100830005B68012B0BD03B685B68022B07D03B68E1
:100840005B68112B03D03B685B68122B30D17B684F
:100850009B68BB61FB695B00032202FA03F3DB4385
:10086000BA691340BB613B68DA68FB695B0002FA56
:1008700003F3BA691343BB617B68BA699A607B680A
:100880005B68BB610122FB6902FA03F3DB43BA69CF
:100890001340BB613B685B681B0903F00102FB6905
:1008A00002FA03F3BA691343BB617B68BA695A6001
:1008B0007B68DB68BB61FB695B00032202FA03F320
:1008C000DB43BA691340BB613B689A68FB695B0014
:1008D00002FA03F3BA691343BB617B68BA69DA6051
:1008E0003B685B6803F08053002B00F0B48000236A
:1008F000FB605F4A5E4B5B6C43F4804353645C4B2C
:100900005B6C03F48043FB60FB685A4AFB699B08FD
:10091000023352F82330BB61FB6903F003039B00F1
:100920000F2202FA03F3DB43BA691340BB617B6811
:10093000514A93422BD07B68504A934225D07B6822
:100940004F4A93421FD07B684E4A934219D07B682E
:100950004D4A934213D07B684C4A93420DD07B683A
:100960004B4A934207D07B684A4A934201D10723FE
:100970000EE008230CE006230AE0052308E0042328
:1009800006E0032304E0022302E0012300E0002349
:10099000FA6902F0030292009340BA691343BB6103
:1009A0003449FB699B080233BA6941F823203A4B6A
:1009B0001B68BB613B69DB43BA691340BB613B68A1
:1009C0005B6803F48033002B03D0BA693B6913439F
:1009D000BB61314ABB6913602F4B5B68BB613B69EC
:1009E000DB43BA691340BB613B685B6803F40033C7
:1009F000002B03D0BA693B691343BB61264ABB692C
:100A00005360254B9B68BB613B69DB43BA6913406C
:100A1000BB613B685B6803F48013002B03D0BA69A9
:100A20003B691343BB611C4ABB6993601A4BDB688B
:100A3000BB613B69DB43BA691340BB613B685B68E0
:100A400003F40013002B03D0BA693B691343BB6165
:100A5000114ABB69D360FB690133FB61FB690F2B52
:100A60007FF690AE00BF2437BD465DF8047B70472B
:100A700000380240003801400000024000040240FB
:100A800000080240000C0240001002400014024026
:100A900000180240001C0240003C014080B483B0BA
:100AA00000AF78600B467B8013467B707B78002B11
:100AB00003D07A887B689A6103E07B881A047B689C
:100AC0009A6100BF0C37BD465DF8047B704780B467
:100AD00083B000AF78600B467B807B685A697B8867
:100AE0001A407B889A4204D17B881A047B689A61F9
:100AF00002E07A887B689A6100BF0C37BD465DF8DA
:100B0000047B7047F0B58FB00AAF78607B68002B2C
:100B100001D101230FE17B681B68BB607B6893F800
:100B2000BD33DBB2002B06D17B68002283F8BC23E7
:100B3000786806F083FC7B68032283F8BD23BB68DA
:100B4000DB6B03F48073002B02D17B6800221A61F7
:100B50007B681B68184602F00CF97B681B683B60D9
:100B60007E686D4606F110040FCC0FC50FCC0FC583
:100B700094E8030085E80300331D0ECB386801F0CC
:100B8000E3FF0346002B05D07B68022283F8BD23D8
:100B90000123D0E07B681B680021184602F0FAF8B8
:100BA0000023FB734AE0FA7B79681346DB009B1A4B
:100BB0009B000B443D3301221A70FA7B796813467F
:100BC000DB009B1A9B000B443C33FA7B1A70FA7BC8
:100BD000FB7B98B279681346DB009B1A9B000B44A1
:100BE000423302461A80FA7B79681346DB009B1A6F
:100BF0009B000B443F3300221A70FA7B796813463E
:100C0000DB009B1A9B000B44443300221A60FA7BE2
:100C100079681346DB009B1A9B000B444833002283
:100C20001A60FA7B79681346DB009B1A9B000B4421
:100C3000503300221A60FB7B0133FB73FA7B7B6825
:100C40005B689A42AFD30023FB7344E0FA7B796878
:100C50001346DB009B1A9B000B4403F2FD1300229A
:100C60001A70FA7B79681346DB009B1A9B000B44D1
:100C700003F5FE73FA7B1A70FA7B79681346DB0082
:100C80009B1A9B000B4403F2FF1300221A70FA7B9D
:100C900079681346DB009B1A9B000B4403F5017334
:100CA00000221A60FA7B79681346DB009B1A9B00CE
:100CB0000B4403F5027300221A60FA7B796813462D
:100CC000DB009B1A9B000B4403F5047300221A609F
:100CD000FB7B0133FB73FA7B7B685B689A42B5D37D
:100CE0007B681B683B607E686D4606F110040FCC84
:100CF0000FC50FCC0FC594E8030085E80300331D32
:100D00000ECB386802F070F80346002B05D07B68E4
:100D1000022283F8BD2301230DE07B68002283F8C3
:100D200038207B68012283F8BD237B681B68184646
:100D300003F0A0F8002318461437BD46F0BD80B577
:100D400084B000AF78607B681B68FB607B6893F8B9
:100D5000BC33012B01D1022320E07B68012283F800
:100D6000BC237B689B6A012B09D17B689B69012BA3
:100D700005D0FB689B6B43F48032FB689A637B6809
:100D80001B68184603F05DF87B681B68184601F085
:100D9000DFFF7B68002283F8BC230023184610374E
:100DA000BD4680BD90B58DB000AF78607B681B6894
:100DB0003B623B6AFB617B681B68184603F006F9DF
:100DC0000346002B40F099837B681B68184603F0AC
:100DD0006AF80346002B00F08F837B681B68184677
:100DE00003F061F8034603F00203022B07D17B688E
:100DF0001B687A681268526902F002025A617B68C5
:100E00001B68184603F04FF8034603F40023B3F5BC
:100E1000002F7BD100237B627B681B68184603F0A0
:100E200055F8B8626FE0BB6A03F00103002B64D091
:100E30007B681B687A6AD2B21146184603F07AF8CA
:100E4000B861BB6903F00103002B0CD07B6A5A0127
:100E5000FB69134403F530631A4601239360796AF2
:100E6000786800F019FEBB6903F00803002B0CD072
:100E7000796A786800F018FF7B6A5A01FB691344AD
:100E800003F530631A4608239360BB6903F010032F
:100E9000002B08D07B6A5A01FB69134403F53063C9
:100EA0001A4610239360BB6903F02003002B15D072
:100EB0007B681B69012B08D17B6818687B6803F588
:100EC00071731A46012103F0C7F87B6A5A01FB6966
:100ED000134403F530631A4620239360BB6903F47F
:100EE0000053002B09D07B6A5A01FB69134403F5B8
:100EF00030631A464FF4005393607B6A01337B6280
:100F0000BB6A5B08BB62BB6A002B8CD17B681B6829
:100F1000184602F0C8FF034603F48023B3F5802F80
:100F200040F0C5807B681B68184602F0E9FFB86294
:100F300000237B62B7E0BB6A03F00103002B00F0E3
:100F4000AC807B681B687A6AD2B21146184603F0FF
:100F50000FF8B861BB6903F00103002B5CD07B6A1A
:100F600003F00F03012202FA03F37B61FB6903F52F
:100F700000631946FB6903F500635A6B7B69DB4329
:100F800013404B637B6A5A01FB69134403F51063FA
:100F90001A46012393607B681B69012B1BD179687A
:100FA0007A6A1346DB009B1A9B000B44483319688E
:100FB00078687A6A1346DB009B1A9B00034444332B
:100FC0001B68194478687A6A1346DB009B1A9B00F9
:100FD0000344483319607B6ADBB21946786806F02F
:100FE000AEFA7B681B69012B16D17B6A002B13D1EB
:100FF00079687A6A1346DB009B1A9B000B445033D6
:101000001B68002B08D17B6818687B6803F5717337
:101010001A46012103F020F8BB6903F00803002BF6
:1010200008D07B6A5A01FB69134403F510631A4622
:1010300008239360BB6903F01003002B08D07B6A80
:101040005A01FB69134403F510631A461023936099
:10105000BB6903F04003002B08D07B6A5A01FB698F
:10106000134403F510631A4640239360BB6903F0F1
:101070000203002B08D07B6A5A01FB69134403F575
:1010800010631A4602239360BB6903F08003002BB0
:1010900003D0796A786800F071FC7B6A01337B6267
:1010A000BB6A5B08BB62BB6A002B7FF444AF7B6802
:1010B0001B68184602F0F7FE034603F00043B3F145
:1010C000004F23D1FB6903F500631A46FB6903F562
:1010D00000635B6823F0010353607B6893F8F4338B
:1010E000012B08D17B68002283F8F4230021786863
:1010F00000F092FE02E0786806F09AFA7B681B68BE
:101100007A681268526902F000425A617B681B6873
:10111000184602F0C8FE034603F40063B3F5006FFF
:1011200012D1FB6903F500639B6803F00103012BF7
:1011300002D1786806F054FA7B681B687A681268F6
:10114000526902F400625A617B681B68184602F01B
:10115000AAFE034603F48053B3F5805F40F0B080ED
:10116000FB6903F500631A46FB6903F500635B68DE
:1011700023F0010353607B681B681021184601F0BF
:10118000A5FF0023FB6238E0FB6A5A01FB691344A8
:1011900003F510631A464FF67F339360FB6A5A01DA
:1011A000FB69134403F510631946FB6A5A01FB6996
:1011B000134403F510631B6823F400130B60FB6AF0
:1011C0005A01FB69134403F530631A464FF67F3327
:1011D0009360FB6A5A01FB69134403F530631946B7
:1011E000FB6A5A01FB69134403F530631B6823F45F
:1011F00000130B60FB6A0133FB627B685A68FB6A71
:101200009A42C1D8FB6903F500631A46FB6903F5EE
:101210000063DB6943F00113D3617B681B6B002B18
:1012200018D0FB6903F500631A46FB6903F50063F8
:10123000D3F8843043F00B03C2F88430FB6903F524
:1012400000631A46FB6903F500635B6C43F00B0314
:10125000536417E0FB6903F500631A46FB6903F565
:1012600000635B6943F4005343F02B035361FB6954
:1012700003F500631A46FB6903F500631B6943F03D
:101280000B031361FB6903F500631A46FB6903F561
:1012900000631B6823F4FE6313607B6818687B6837
:1012A0001B69D9B27B6803F571731A4602F0D4FE4C
:1012B0007B681B687A681268526902F480525A612E
:1012C0007B681B68184602F0EEFD034603F40053EA
:1012D000B3F5005F24D17B681B68184602F084FEDA
:1012E0007B681B68184601F053FF03461A467B686B
:1012F000DA607B681C6801F097F901467B68DB685F
:10130000DBB21A46204601F081FC786806F03FF90E
:101310007B681B687A681268526902F400525A614D
:101320007B681B68184602F0BEFD034603F01003FD
:10133000102B61D17B681B687A681268926922F071
:1013400010029A613B6A1B6A3B613B6903F00F0222
:101350001346DB009B1A9B0003F5FC737A68134469
:101360000433FB603B695B0C03F00F03022B24D1B9
:101370003A6947F6F0731340002B35D0FB68D96803
:101380003B691B099BB2C3F30A039BB21A46386A36
:1013900002F02AFCFB68DA683B691B09C3F30A0305
:1013A0001A44FB68DA60FB689A693B691B09C3F35E
:1013B0000A031A44FB689A6116E03B695B0C03F070
:1013C0000F03062B10D17B6803F5717308221946B1
:1013D000386A02F009FCFB689A693B691B09C3F390
:1013E0000A031A44FB689A617B681B687A68126872
:1013F000926942F010029A617B681B68184602F0FD
:1014000052FD034603F00803082B0AD1786806F062
:10141000B0F87B681B687A681268526902F00802AB
:101420005A617B681B68184602F03DFD034603F4D1
:101430008013B3F5801F0FD100237B627B6ADBB280
:101440001946786806F014F97B681B687A68126898
:10145000526902F480125A617B681B68184602F0D8
:1014600022FD034603F40013B3F5001F0FD1002340
:101470007B627B6ADBB21946786806F0E7F87B6826
:101480001B687A681268526902F400125A617B681C
:101490001B68184602F007FD034603F08043B3F1D2
:1014A000804F0AD1786806F0F5F87B681B687A6887
:1014B0001268526902F080425A617B681B681846C4
:1014C00002F0F1FC034603F00403042B15D17B6802
:1014D0001B685B683B613B6903F00403002B02D08F
:1014E000786806F0E5F87B681B687A6812685168CE
:1014F0003A690A435A6000E000BF3437BD4690BDE8
:1015000080B582B000AF78600B46FB707B6893F8C3
:10151000BC33012B01D1022313E07B68012283F845
:10152000BC237B68FA7883F838207B681B68FA78DC
:101530001146184602F05DFC7B68002283F8BC234C
:10154000002318460837BD4680BD80B584B000AF83
:101550007860084611461A460346FB700B463B80EE
:101560001346BB700023FB7297F90330002B0FDA90
:10157000FB7803F00F021346DB009B1A9B00383305
:101580007A6813440433FB60FB6801225A700FE051
:10159000FB7803F00F021346DB009B1A9B0003F558
:1015A000FC737A6813440433FB60FB6800225A70B2
:1015B000FB7803F00F03DAB2FB681A703A88FB6815
:1015C0009A60FB68BA78DA70FB685B78002B04D00D
:1015D000FB681B789AB2FB68DA80BB78022B02D1D9
:1015E000FB6800221A717B6893F8BC33012B01D190
:1015F00002230EE07B68012283F8BC237B681B6812
:10160000F968184601F0E9FD7B68002283F8BC23E5
:10161000FB7A18461037BD4680BD80B584B000AF58
:1016200078600B46FB7097F90330002B0FDAFB78DC
:1016300003F00F021346DB009B1A9B0038337A68D5
:1016400013440433FB60FB6801225A700FE0FB78FF
:1016500003F00F021346DB009B1A9B0003F5FC739B
:101660007A6813440433FB60FB6800225A70FB78ED
:1016700003F00F03DAB2FB681A707B6893F8BC338F
:10168000012B01D102230EE07B68012283F8BC23E9
:101690007B681B68F968184601F02AFE7B68002207
:1016A00083F8BC23002318461037BD4680BD80B5A3
:1016B00086B000AFF8607A603B600B46FB72FB7A45
:1016C00003F00F021346DB009B1A9B0003F5FC732B
:1016D000FA68134404337B617B697A68DA607B695A
:1016E0003A685A617B6900229A617B6900225A70CC
:1016F000FB7A03F00F03DAB27B691A70FB681B698F
:10170000012B02D17A687B691A61FB7A03F00F031F
:10171000002B09D1FB681868FB681B69DBB21A460D
:10172000796902F0C9F808E0FB681868FB681B6972
:10173000DBB21A46796901F063FE002318461837B8
:10174000BD4680BD80B483B000AF78600B46FB70AF
:10175000FB7803F00F0279681346DB009B1A9B00AD
:101760000B4403F505731B6818460C37BD465DF83E
:10177000047B704780B586B000AFF8607A603B604C
:101780000B46FB72FB7A03F00F021346DB009B1A39
:101790009B003833FA68134404337B617B697A68B1
:1017A000DA607B693A685A617B6900229A617B69D9
:1017B00001225A70FB7A03F00F03DAB27B691A70C8
:1017C000FB681B69012B02D17A687B691A61FB7A7D
:1017D00003F00F03002B09D1FB681868FB681B6935
:1017E000DBB21A46796902F067F808E0FB6818680E
:1017F000FB681B69DBB21A46796901F001FE002320
:1018000018461837BD4680BD80B584B000AF7860FB
:101810000B46FB70FB7803F00F027B685B689A4213
:1018200001D9012350E097F90330002B0FDAFB7840
:1018300003F00F021346DB009B1A9B0038337A68D3
:1018400013440433FB60FB6801225A700DE0FA7800
:101850001346DB009B1A9B0003F5FC737A68134464
:101860000433FB60FB6800225A70FB6801229A7007
:10187000FB7803F00F03DAB2FB681A707B6893F809
:10188000BC33012B01D102231EE07B68012283F8C7
:10189000BC237B681B68F968184602F0CEF9FB7818
:1018A00003F00F03002B0AD17B6818687B681B6963
:1018B000D9B27B6803F571731A4602F0CDFB7B68E1
:1018C000002283F8BC23002318461037BD4680BD94
:1018D00080B584B000AF78600B46FB70FB7803F0F6
:1018E0000F027B685B689A4201D9012342E097F9B5
:1018F0000330002B0FDAFB7803F00F021346DB00F6
:101900009B1A9B0038337A6813440433FB60FB68EE
:1019100001225A700FE0FB7803F00F021346DB0040
:101920009B1A9B0003F5FC737A6813440433FB6035
:10193000FB6800225A70FB6800229A70FB7803F063
:101940000F03DAB2FB681A707B6893F8BC33012B83
:1019500001D102230EE07B68012283F8BC237B685F
:101960001B68F968184602F0DAF97B68002283F8F0
:10197000BC23002318461037BD4680BD80B58AB011
:1019800002AF786039607B681B687B617B693B6173
:101990003A681346DB009B1A9B0038337A6813447D
:1019A0000433FB60FB689A69FB685B699A4201D962
:1019B00001236DE0FB685A69FB689B69D31AFB61E0
:1019C000FB689A68FB699A4202D2FB689B68FB61DC
:1019D000FB6903339B08BB612BE0FB685A69FB681A
:1019E0009B69D31AFB61FB689A68FB699A4202D231
:1019F000FB689B68FB61FB6903339B08BB61FB6869
:101A0000D9683B68DAB2FB6998B27B681B69DBB2C4
:101A100000930346786902F0B2F8FB68DA68FB6964
:101A20001A44FB68DA60FB689A69FB691A44FB6830
:101A30009A613B685A013B69134403F510639B6943
:101A40009AB2BB699A4209D3FB689A69FB685B69E1
:101A50009A4203D2FB685B69002BBED1FB685A69CE
:101A6000FB689B699A4212D83B6803F00F0301227E
:101A700002FA03F3BB603B6903F5006319463B6957
:101A800003F500635A6BBB68DB4313404B630023D1
:101A900018462037BD4680BD80B586B000AF78605F
:101AA00039607B681B687B617B693B617B693C3388
:101AB00004331B68FB603B685A013B69134403F520
:101AC00030639B68BB607B681B69012B40F0B3806F
:101AD000BB6803F00803002B28D0FB68704A9342D0
:101AE0000ED9BB6803F40043002B09D03B685A01B0
:101AF0003B69134403F530631A464FF40043936087
:101B0000786805F0EFFC7B6818687B6803F57173F3
:101B10001A46012102F0A0FA3B685A013B691344BE
:101B200003F530631A4608239360B3E0BB6803F003
:101B30002003002B09D03B685A013B69134403F58D
:101B400030631A4620239360A4E0BB6803F02803A7
:101B5000002B40F09F80FB68514A93420FD9BB682D
:101B600003F40043002B0AD03B685A013B6913443D
:101B700003F530631A464FF4004393608AE07968B6
:101B80003A681346DB009B1A9B000B4403F5017374
:101B90001A683B6859013B690B4403F530631B69C4
:101BA000C3F31203D11A78683A681346DB009B1A14
:101BB0009B00034403F50573196079683A6813467E
:101BC000DB009B1A9B000B4403F5027319687868CD
:101BD0003A681346DB009B1A9B00034403F501732C
:101BE0001B68194478683A681346DB009B1A9B000F
:101BF000034403F5027319603B68DBB21946786849
:101C000005F082FC3B68002B44D179683A681346A2
:101C1000DB009B1A9B000B4403F504731B68002B2D
:101C200038D17B6818687B6803F571731A46012107
:101C300002F012FA2EE0FB681A4A934224D1BB68E4
:101C400003F40043002B0AD03B685A013B6913445C
:101C500003F530631A464FF4004393601AE0BB6803
:101C600003F02003002B08D03B685A013B69134462
:101C700003F530631A46202393603B68DBB21946B4
:101C8000786805F041FC05E03B68DBB219467868EE
:101C900005F03AFC002318461837BD4680BD00BF4A
:101CA0000A30544F0A31544F80B586B000AF786087
:101CB00039607B681B687B617B693B617B693C3376
:101CC00004331B68FB603B685A013B69134403F50E
:101CD00030639B68BB607B681B69012B13D1FB6879
:101CE0001F4A934222D9BB6803F40043002B1DD046
:101CF0003B685A013B69134403F530631A464FF4BD
:101D00000043936012E0FB68164A93420ED1BB6811
:101D100003F40043002B09D03B685A013B6913448C
:101D200003F530631A464FF400439360786805F07A
:101D3000D9FBFB680A4A93420CD97B681B69012BCB
:101D400008D17B6818687B6803F571731A46012116
:101D500002F082F9002318461837BD4680BD00BF47
:101D60000A30544F0A31544F80B485B000AF7860C8
:101D70000B46FB7013463B807B681B685B6ABB604D
:101D8000FB78002B07D17B681B683A881104BA687E
:101D90000A439A6228E07B681B689B6A1B0CBA683E
:101DA0001344BB600023FB730DE07B681A68FB7B68
:101DB00040339B0013445B681B0CBA681344BB6040
:101DC000FB7B0133FB73FA7BFB78013B9A42ECD33C
:101DD0007B681968FB78013B3A881004BA680243B3
:101DE00040339B000B445A60002318461437BD460D
:101DF0005DF8047B704780B483B000AF78600B4619
:101E00007B807B681B687A885A62002318460C37EF
:101E1000BD465DF8047B704780B483B000AF786046
:101E20000B46FB7000BF0C37BD465DF8047B704766
:101E300080B586B000AF78607B68002B01D10123AC
:101E40002DE27B681B6803F00103002B75D0A34BC8
:101E50009B6803F00C03042B0CD0A04B9B6803F091
:101E60000C03082B12D19D4B5B6803F48003B3F580
:101E7000800F0BD1994B1B6803F40033002B5BD010
:101E80007B685B68002B57D1012308E27B685B68A5
:101E9000B3F5803F06D1914A904B1B6843F48033E1
:101EA00013601DE07B685B68B3F5A02F0CD18B4AF3
:101EB0008A4B1B6843F480231360884A874B1B6856
:101EC00043F4803313600BE0844A844B1B6823F493
:101ED00080331360814A814B1B6823F48023136095
:101EE0007B685B68002B13D0FEF730FB386108E09D
:101EF000FEF72CFB02463B69D31A642B01D903235E
:101F0000CDE1764B1B6803F40033002BF0D014E0D6
:101F1000FEF71CFB386108E0FEF718FB02463B6940
:101F2000D31A642B01D90323B9E16C4B1B6803F46A
:101F30000033002BF0D100E000BF7B681B6803F08A
:101F40000203002B63D0654B9B6803F00C03002B4E
:101F50000BD0624B9B6803F00C03082B1CD15F4B2A
:101F60005B6803F48003002B16D15C4B1B6803F005
:101F70000203002B05D07B68DB68012B01D0012315
:101F80008DE15649554B1B6823F0F8027B681B69AD
:101F9000DB0013430B603AE07B68DB68002B20D04A
:101FA0004F4B01221A60FEF7D1FA386108E0FEF7C4
:101FB000CDFA02463B69D31A022B01D903236EE105
:101FC000464B1B6803F00203002BF0D04349434B00
:101FD0001B6823F0F8027B681B69DB0013430B606E
:101FE00015E03F4B00221A60FEF7B0FA386108E0B6
:101FF000FEF7ACFA02463B69D31A022B01D9032340
:102000004DE1364B1B6803F00203002BF0D17B68D7
:102010001B6803F00803002B30D07B685B69002B42
:1020200016D0304B01221A60FEF790FA386108E0B2
:10203000FEF78CFA02463B69D31A022B01D903231F
:102040002DE1264B5B6F03F00203002BF0D015E06F
:10205000244B00221A60FEF779FA386108E0FEF797
:1020600075FA02463B69D31A022B01D9032316E104
:102070001A4B5B6F03F00203002BF0D17B681B68E7
:1020800003F00403002B00F0A0800023FB75134B2A
:102090001B6C03F08053002B0FD10023FB600F4A11
:1020A0000E4B1B6C43F0805313640C4B1B6C03F002
:1020B0008053FB60FB680123FB750B4B1B6803F42B
:1020C0008073002B21D1084A074B1B6843F48073AF
:1020D0001360FEF73BFA386111E000BF00380240A0
:1020E00000004742800E474200700040FEF72EFA83
:1020F00002463B69D31A022B01D90323CFE06A4B76
:102100001B6803F48073002BF0D07B689B68012B65
:1021100006D1664A654B1B6F43F0010313671CE051
:102120007B689B68052B0CD1604A604B1B6F43F0AA
:10213000040313675D4A5D4B1B6F43F00103136794
:102140000BE05A4A594B1B6F23F001031367574AA0
:10215000564B1B6F23F0040313677B689B68002BAF
:1021600015D0FEF7F3F938610AE0FEF7EFF9024601
:102170003B69D31A41F28832934201D903238EE09E
:102180004A4B1B6F03F00203002BEED014E0FEF766
:10219000DDF938610AE0FEF7D9F902463B69D31A46
:1021A00041F28832934201D9032378E03F4B1B6F01
:1021B00003F00203002BEED1FB7D012B05D13B4A3E
:1021C0003A4B1B6C23F0805313647B689B69002B94
:1021D00064D0364B9B6803F00C03082B5CD07B6803
:1021E0009B69022B41D1324B00221A60FEF7AEF9F7
:1021F000386108E0FEF7AAF902463B69D31A022BC0
:1022000001D903234BE0294B1B6803F00073002B1B
:10221000F0D126497B68DA697B681B6A1A437B68C0
:102220005B6A9B011A437B689B6A5B08013B1B044A
:102230001A437B68DB6A1B0613434B601C4B01226D
:102240001A60FEF783F9386108E0FEF77FF902466D
:102250003B69D31A022B01D9032320E0134B1B68DF
:1022600003F00073002BF0D018E0114B00221A602D
:10227000FEF76CF9386108E0FEF768F902463B6941
:10228000D31A022B01D9032309E0084B1B6803F082
:102290000073002BF0D101E0012300E00023184679
:1022A0001837BD4680BD00BF0070004000380240B6
:1022B0006000474280B584B000AF786039607B68C9
:1022C000002B01D10123CAE0674B1B6803F00F020A
:1022D0003B689A420CD2644B3A68D2B21A70624B95
:1022E0001B6803F00F023B689A4201D00123B6E05D
:1022F0007B681B6803F00203002B20D07B681B68FF
:1023000003F00403002B05D0584A584B9B6843F454
:10231000E05393607B681B6803F00803002B05D033
:10232000524A524B9B6843F4604393604F494F4B72
:102330009B6823F0F0027B689B6813438B607B688B
:102340001B6803F00103002B44D07B685B68012B02
:1023500007D1464B1B6803F40033002B19D101232E
:102360007DE07B685B68022B03D07B685B68032B96
:1023700007D13E4B1B6803F00073002B09D10123EA
:102380006DE03A4B1B6803F00203002B01D10123DF
:1023900065E03649354B9B6823F003027B685B6838
:1023A00013438B60FEF7D2F8F8600AE0FEF7CEF830
:1023B0000246FB68D31A41F28832934201D90323C3
:1023C0004DE02A4B9B6803F00C027B685B689B0026
:1023D0009A42EBD1244B1B6803F00F023B689A42F0
:1023E0000CD9214B3A68D2B21A701F4B1B6803F00C
:1023F0000F023B689A4201D0012330E07B681B68E2
:1024000003F00403002B08D01849184B9B6823F4F1
:10241000E0527B68DB6813438B607B681B6803F0CA
:102420000803002B09D01149104B9B6823F460422C
:102430007B681B69DB0013438B6000F01DF80146CD
:102440000A4B9B681B0903F00F03094AD35C21FA6E
:1024500003F3084A1360002004F042FE00231846EC
:102460001037BD4680BD00BF003C0240003802402E
:10247000407F0008180100202DE9F04F8FB000AF19
:102480000023FB6200237B630023BB6200233B63CA
:10249000624B9B6803F00C03042B07D0082B08D079
:1024A000002B40F0B2805E4B3B63B1E05D4B3B6381
:1024B000AEE05A4B5B6803F03F03FB62574B5B682F
:1024C00003F48003002B4ED0544B5B689B094FF004
:1024D000000440F2FF114FF0000201EA030102EA9A
:1024E00004020B46144660017862786A40EAD360C1
:1024F00078625B013B62D7E908345B1A64EB020443
:102500004FEA841949EA93694FEA8318B8EB030844
:1025100069EB04094FEAC903FB61FB6943EA58739D
:10252000FB614FEAC803BB61D7E9068918EB0108D4
:1025300049EB02094FEA49237B617B6943EAD8539F
:102540007B614FEA48233B61D7E90489404649460D
:10255000FB6A4FF000041A462346FDF739FE034696
:102560000C467B6343E02D4B5B689B094FF00004F6
:1025700040F2FF114FF0000201EA030102EA0402F7
:102580000B4614466001F860F86840EAD360F860D2
:102590005B01BB60D7E902345B1A64EB0204A6015D
:1025A00046EA93669D01ED1A66EB0406F3007B6034
:1025B0007B6843EA55737B60EB003B6097E8600003
:1025C0006D1846EB02064FEA862B4BEA955B4FEA05
:1025D000852A55465E4628463146FB6A4FF0000480
:1025E0001A462346FDF7F4FD03460C467B630B4B6E
:1025F0005B681B0C03F0030301335B00BB627A6B67
:10260000BB6AB2FBF3F33B6302E0054B3B6300BFE5
:102610003B6B18463C37BD46BDE8F08F00380240A2
:102620000024F40000127A0080B400AF034B1B6852
:102630001846BD465DF8047B704700BF18010020B6
:1026400080B500AFFFF7F0FF0146054B9B689B0A82
:1026500003F00703034AD35C21FA03F3184680BD55
:1026600000380240507F000880B483B000AF78602B
:1026700039607B680F221A60124B9B6803F00302DB
:102680007B685A600F4B9B6803F0F0027B689A608E
:102690000C4B9B6803F4E0527B68DA60094B9B6843
:1026A000DB0803F4E0527B681A61074B1B6803F0F8
:1026B0000F023B681A6000BF0C37BD465DF8047B13
:1026C000704700BF00380240003C024080B582B035
:1026D00000AF78607B68002B01D101231DE07B688F
:1026E00093F83D30DBB2002B06D17B68002283F8E3
:1026F0003C20786800F015F87B68022283F83D20C2
:102700007B681A687B6804331946104600F068F944
:102710007B68012283F83D20002318460837BD4618
:1027200080BD80B483B000AF786000BF0C37BD4679
:102730005DF8047B704780B485B000AF78607B683B
:102740001B687A681268D26842F00102DA607B681E
:102750001B689B6803F00703FB60FB68062B07D030
:102760007B681B687A681268126842F001021A607E
:10277000002318461437BD465DF8047B704780B5CA
:1027800082B000AF78607B681B681B6903F00203AE
:10279000022B22D17B681B68DB6803F00203022B4B
:1027A0001BD17B681B686FF002021A617B680122F3
:1027B0001A777B681B689B6903F00303002B03D027
:1027C000786800F0EEF805E0786800F0E0F87868E6
:1027D00000F0F1F87B6800221A777B681B681B69A0
:1027E00003F00403042B22D17B681B68DB6803F031
:1027F0000403042B1BD17B681B686FF004021A6171
:102800007B6802221A777B681B689B6903F440731C
:10281000002B03D0786800F0C4F805E0786800F079
:10282000B6F8786800F0C7F87B6800221A777B68F2
:102830001B681B6903F00803082B22D17B681B6807
:10284000DB6803F00803082B1BD17B681B686FF063
:1028500008021A617B6804221A777B681B68DB69AF
:1028600003F00303002B03D0786800F09AF805E02A
:10287000786800F08CF8786800F09DF87B6800229A
:102880001A777B681B681B6903F01003102B22D199
:102890007B681B68DB6803F01003102B1BD17B687F
:1028A0001B686FF010021A617B6808221A777B6838
:1028B0001B68DB6903F44073002B03D0786800F0D9
:1028C00070F805E0786800F062F8786800F073F856
:1028D0007B6800221A777B681B681B6903F0010381
:1028E000012B0ED17B681B68DB6803F00103012B11
:1028F00007D17B681B686FF001021A61786804F0E9
:10290000A9FB7B681B681B6903F08003802B0ED139
:102910007B681B68DB6803F08003802B07D17B6832
:102920001B686FF080021A61786800F003F97B6819
:102930001B681B6903F04003402B0ED17B681B68AA
:10294000DB6803F04003402B07D17B681B686FF006
:1029500040021A61786800F038F87B681B681B69D0
:1029600003F02003202B0ED17B681B68DB6803F08B
:102970002003202B07D17B681B686FF020021A61AF
:10298000786800F0CDF800BF0837BD4680BD80B440
:1029900083B000AF786000BF0C37BD465DF8047BA4
:1029A000704780B483B000AF786000BF0C37BD467D
:1029B0005DF8047B704780B483B000AF786000BFDF
:1029C0000C37BD465DF8047B704780B483B000AF20
:1029D000786000BF0C37BD465DF8047B704700008F
:1029E00080B485B000AF786039607B681B68FB609D
:1029F0007B68404A934213D07B68B3F1804F0FD07D
:102A00007B683D4A93420BD07B683C4A934207D097
:102A10007B683B4A934203D07B683A4A934208D191
:102A2000FB6823F07003FB603B685B68FA68134344
:102A3000FB607B682F4A93422BD07B68B3F1804FB9
:102A400027D07B682C4A934223D07B682B4A934241
:102A50001FD07B682A4A93421BD07B68294A934245
:102A600017D07B68284A934213D07B68274A934249
:102A70000FD07B68264A93420BD07B68254A93424D
:102A800007D07B68244A934203D07B68234A934251
:102A900008D1FB6823F44073FB603B68DB68FA688D
:102AA0001343FB60FB6823F080023B685B691343C0
:102AB000FB607B68FA681A603B689A687B68DA6238
:102AC0003B681A687B689A627B680A4A934203D023
:102AD0007B680C4A934203D13B681A697B681A638E
:102AE0007B6801225A6100BF1437BD465DF8047B44
:102AF000704700BF00000140000400400008004093
:102B0000000C00400004014000400140004401402E
:102B10000048014000180040001C00400020004018
:102B200080B483B000AF786000BF0C37BD465DF85D
:102B3000047B704780B483B000AF786000BF0C376F
:102B4000BD465DF8047B704784B080B584B000AFAB
:102B5000786007F11C0080E80E003B6B012B22D14E
:102B60007B689B6B23F480327B689A637B68DB68AD
:102B700023F4840323F040037A68D3607B68DB6826
:102B800023F440127B68DA60FB6C012B05D17B6873
:102B9000DB6843F480127B68DA60786801F0BEFA83
:102BA0000346FB731AE07B68DB6843F040027B68F6
:102BB000DA60786801F0B2FA0346FB733B6C002BD5
:102BC00006D17B689B6B43F480327B689A6305E097
:102BD0007B689B6B23F480327B689A63BB6A012B12
:102BE0000BD17B689B6843F006027B689A607B6828
:102BF0009B6843F020027B689A60FB7B1846103785
:102C0000BD46BDE8804004B07047000080B487B086
:102C100000AFF860B9601346FB71FB79022B65D1F8
:102C2000BB68414A934206D9BB68404A934202D8E6
:102C30000F237B6162E0BB683C4A934206D9BB68C4
:102C40003B4A934202D80E237B6157E0BB68384A67
:102C5000934206D9BB68374A934202D80D237B6161
:102C60004CE0BB68334A934206D9BB68324A934270
:102C700002D80C237B6141E0BB682F4A934206D9FE
:102C8000BB682E4A934202D80B237B6136E0BB68B7
:102C90002A4A934206D9BB68294A934202D80A239A
:102CA0007B612BE0BB68264A934206D9BB68254A64
:102CB000934202D809237B6120E0BB68214A9342FA
:102CC00006D9BB68204A934202D808237B6115E0ED
:102CD000BB681D4A934206D9BB681C4A934202D87E
:102CE00007237B610AE006237B6107E0FB79002B69
:102CF00002D109237B6101E009237B61FB68DB686A
:102D000023F47052FB68DA60FB68DA687B699B0227
:102D100003F470531A43FB68DA60002318461C372B
:102D2000BD465DF8047B7047BFACD800BFE1E4004E
:102D3000FF23F4007F7306019F491A01FF2C310124
:102D40003FA44C01FF356E011FABA601FF47E80110
:102D500080B483B000AF78607B689B6843F0010269
:102D60007B689A60002318460C37BD465DF8047BEB
:102D7000704780B483B000AF78607B689B6823F0B5
:102D800001027B689A60002318460C37BD465DF847
:102D9000047B704780B582B000AF78600B46FB7053
:102DA0007B68DB6823F0C0427B68DA60FB78012B2C
:102DB00006D17B68DB6843F000527B68DA600BE089
:102DC000FB78002B06D17B68DB6843F080427B6890
:102DD000DA6001E0012303E03220FDF7C3FB0023AA
:102DE00018460837BD4680BD84B080B586B000AFB8
:102DF000786007F1240080E80E000023FB757B68F3
:102E0000FB6000233B6109E07A683B6940339B002B
:102E1000134400225A603B6901333B613B690E2B2E
:102E2000F2D9FB6C002B12D17B689B6B43F4001230
:102E30007B689A637B689B6B23F400227B689A63B0
:102E40007B689B6B23F480227B689A630BE07B6832
:102E50001B6823F400127B681A607B689B6B43F449
:102E600000227B689A63FB6803F560631A460023BF
:102E70001360FB6803F500631A46FB6803F5006303
:102E80001B681360BB6B012B0CD1FB6A002B04D1B8
:102E90000021786800F062F908E00121786800F00C
:102EA0005DF903E00321786800F058F91021786893
:102EB00000F00CF90346002B01D00123FB75786864
:102EC00000F02AF90346002B01D00123FB75FB68B3
:102ED00003F500631A4600231361FB6803F50063E2
:102EE0001A4600235361FB6803F500631A4600236A
:102EF000D36100233B6143E03B695A01FB68134403
:102F000003F510631B6803F00043B3F1004F18D1C1
:102F10003B69002B0AD13B695A01FB68134403F556
:102F200010631A464FF00063136013E03B695A01C7
:102F3000FB68134403F510631A464FF09043136087
:102F400008E03B695A01FB68134403F510631A4615
:102F5000002313603B695A01FB68134403F51063B7
:102F60001A46002313613B695A01FB68134403F5B9
:102F700010631A464FF67F3393603B6901333B6120
:102F80007A6A3B699A42B7D800233B6143E03B69C8
:102F90005A01FB68134403F530631B6803F00043D8
:102FA000B3F1004F18D13B69002B0AD13B695A019C
:102FB000FB68134403F530631A464FF00063136057
:102FC00013E03B695A01FB68134403F530631A466A
:102FD0004FF09043136008E03B695A01FB681344CB
:102FE00003F530631A46002313603B695A01FB68FE
:102FF000134403F530631A46002313613B695A01F9
:10300000FB68134403F530631A464FF67F33936031
:103010003B6901333B617A6A3B699A42B7D8FB68E6
:1030200003F500631A46FB6803F500631B6923F48C
:10303000807313613B6B012B12D1FB6803F50063B6
:103040001A46204B1363FB6803F500631A46FB68BE
:1030500003F500631B6B43F4803343F003031363F6
:103060007B6800229A617B686FF080425A613B6BFB
:10307000002B05D17B689B6943F010027B689A6145
:103080007B689A69104B13437A689361FB6B002B42
:1030900005D07B689B6943F008027B689A61FB6CF2
:1030A000012B07D17B689B6943F0804343F0040305
:1030B0007A689361FB7D18461837BD46BDE88040AD
:1030C00004B070470001800000383C8080B485B0B7
:1030D00000AF786039600023FB603B689B0143F0E0
:1030E00020027B681A61FB680133FB60FB68094AB8
:1030F000934201D9032306E07B681B6903F0200398
:10310000202BF0D0002318461437BD465DF8047B11
:10311000704700BF400D030080B485B000AF7860F9
:103120000023FB607B6810221A61FB680133FB609F
:10313000FB68094A934201D9032306E07B681B69B7
:1031400003F01003102BF0D0002318461437BD46AF
:103150005DF8047B704700BF400D030080B485B06C
:1031600000AF78600B46FB707B68FB60FB6803F583
:1031700000631946FB6803F500631A68FB78134384
:103180000B60002318461437BD465DF8047B70477A
:1031900080B487B000AF78607B683B613B6903F522
:1031A00000639B6803F00603FB60FB68002B02D101
:1031B0000023FB750AE0FB68022B02D0FB68062B9C
:1031C00002D10223FB7501E00F23FB75FB7D18463E
:1031D0001C37BD465DF8047B704780B485B000AFF6
:1031E000786039607B68FB603B681B78BB603B683C
:1031F0005B78012B3CD1FB6803F500631846FB6844
:1032000003F50063DA693B681B7803F00F030121C3
:1032100001FA03F39BB21343C361BB685A01FB6815
:10322000134403F510631B6803F40043002B58D1CB
:10323000BB685A01FB68134403F510631846BB686A
:103240005A01FB68134403F510631A683B689B68D6
:10325000C3F30A013B68DB789B041943BB689B05F9
:103260000B43134343F0805343F40043036038E0BF
:10327000FB6803F500631846FB6803F50063DA6931
:103280003B681B7803F00F03012101FA03F31B04D1
:103290001343C361BB685A01FB68134403F53063F1
:1032A0001B6803F40043002B1BD1BB685A01FB6869
:1032B000134403F530631846BB685A01FB68134496
:1032C00003F530631A683B689B68C3F30A013B68E7
:1032D000DB789B040B43134343F0805343F40043D8
:1032E0000360002318461437BD465DF8047B704721
:1032F00080B485B000AF786039607B68FB603B6864
:103300001B78BB603B685B78012B37D1FB6803F50A
:1033100000631846FB6803F50063DA6B3B681B78B3
:1033200003F00F03012101FA03F39BB2DB431340C7
:10333000C363FB6803F500631846FB6803F500638D
:10334000DA693B681B7803F00F03012101FA03F3EC
:103350009BB2DB431340C361BB685A01FB68134453
:1033600003F510631946BB685A01FB68134403F563
:1033700010631A68204B13400B6036E0FB6803F5BE
:1033800000631846FB6803F50063DA6B3B681B7843
:1033900003F00F03012101FA03F31B04DB43134085
:1033A000C363FB6803F500631846FB6803F500631D
:1033B000DA693B681B7803F00F03012101FA03F37C
:1033C0001B04DB431340C361BB685A01FB68134411
:1033D00003F530631946BB685A01FB68134403F5D3
:1033E00030631A68054B13400B60002318461437EE
:1033F000BD465DF8047B7047007833EC0078F3EF4E
:1034000080B58AB002AFF860B9601346FB71FB6803
:10341000FB61BB681B78BB61BB685B78012B40F02C
:103420006C81BB685B69002B35D1BB695A01FB69B4
:10343000134403F510631946BB695A01FB69134431
:1034400003F510631B6923F0FF5323F4C0130B61D2
:10345000BB695A01FB69134403F510631946BB6944
:103460005A01FB69134403F510631B6943F40023FD
:103470000B61BB695A01FB69134403F510631946DC
:10348000BB695A01FB69134403F510631B69DB0C2C
:10349000DB040B617AE0BB695A01FB69134403F555
:1034A00010631946BB695A01FB69134403F51063A5
:1034B0001B69DB0CDB040B61BB695A01FB6913441C
:1034C00003F510631946BB695A01FB69134403F500
:1034D00010631B6923F0FF5323F4C0130B61BB6916
:1034E0005A01FB69134403F510631846BB695A017E
:1034F000FB69134403F510631A69BB685969BB681B
:103500009B680B44591EBB689B68B1FBF3F3D9045D
:10351000A14B0B4013430361BB695A01FB69134480
:1035200003F510631946BB695A01FB69134403F59F
:1035300010631A69BB685B69C3F3120313430B6121
:10354000BB68DB78012B21D1BB695A01FB691344AD
:1035500003F510631946BB695A01FB69134403F56F
:1035600010631B6923F0C0430B61BB695A01FB69FF
:10357000134403F510631946BB695A01FB691344F0
:1035800003F510631B6943F000530B61FB79012BBA
:103590004ED1BB681B69002B09D0BB695A01FB697E
:1035A000134403F510631A46BB681B695361BB687B
:1035B000DB78012B2AD1FB6903F500639B6803F4D8
:1035C0008073002B11D1BB695A01FB69134403F5C9
:1035D00010631946BB695A01FB69134403F5106374
:1035E0001B6843F000530B6010E0BB695A01FB6994
:1035F000134403F510631946BB695A01FB69134470
:1036000003F510631B6843F080530B60BB695A01DC
:10361000FB69134403F510631946BB695A01FB6942
:10362000134403F510631B6843F004430B603CE153
:10363000BB695A01FB69134403F510631946BB6962
:103640005A01FB69134403F510631B6843F00443FC
:103650000B60BB68DB78012B16D0BB685B69002B65
:1036600000F02381FB6903F500631846FB6903F54D
:1036700000635A6BBB681B7803F00F03012101FA4A
:1036800003F31343436310E1FB6903F500639B6895
:1036900003F48073002B11D1BB695A01FB691344F9
:1036A00003F510631946BB695A01FB69134403F51E
:1036B00010631B6843F000530B6010E0BB695A01B4
:1036C000FB69134403F510631946BB695A01FB6992
:1036D000134403F510631B6843F080530B60BB6811
:1036E000D968BB681A78BB685B6998B2FB790093AC
:1036F0000346F86800F043FAD7E0BB695A01FB695A
:10370000134403F530631946BB695A01FB6913443E
:1037100003F530631B69DB0CDB040B61BB695A01E9
:10372000FB69134403F530631946BB695A01FB6911
:10373000134403F530631B6923F0FF5323F4C013D4
:103740000B61BB685B69002B28D1BB695A01FB691F
:10375000134403F530631946BB695A01FB691344EE
:1037600003F530631A69BB689B68C3F31203134304
:103770000B61BB695A01FB69134403F530631946B9
:10378000BB695A01FB69134403F530631B6943F4B9
:1037900000230B6138E000BF0000F81FBB685A69C6
:1037A000BB689B6813445A1EBB689B68B2FBF3F36B
:1037B000FB82BB695A01FB69134403F53063184669
:1037C000BB695A01FB69134403F530631A69FB8A2C
:1037D000D904384B0B4013430361BB695A01FB69A1
:1037E000134403F530631846BB695A01FB6913445F
:1037F00003F530631A69BB689B68F98A01FB03F320
:10380000C3F3120313430361FB79012B0DD1BB6892
:10381000DB68002B09D0BB695A01FB69134403F52F
:1038200030631A46BB68DB685361BB68DB78012BE9
:103830002AD1FB6903F500639B6803F48073002BB6
:1038400011D1BB695A01FB69134403F53063194672
:10385000BB695A01FB69134403F530631B6843F0ED
:1038600000530B6010E0BB695A01FB69134403F578
:1038700030631946BB695A01FB69134403F5306391
:103880001B6843F080530B60BB695A01FB6913440A
:1038900003F530631946BB695A01FB69134403F50C
:1038A00030631B6843F004430B6000231846203745
:1038B000BD4680BD0000F81F80B487B000AFF8603F
:1038C000B9601346FB71FB687B61BB681B783B6189
:1038D000BB685B78012B40F0D880BB685B69002B2C
:1038E00035D13B695A017B69134403F510631946CE
:1038F0003B695A017B69134403F510631B6923F08C
:10390000FF5323F4C0130B613B695A017B691344D5
:1039100003F5106319463B695A017B69134403F5AB
:1039200010631B6943F400230B613B695A017B69F7
:10393000134403F5106319463B695A017B6913442C
:1039400003F510631B69DB0CDB040B6152E03B6980
:103950005A017B69134403F5106319463B695A0108
:103960007B69134403F510631B69DB0CDB040B61FB
:103970003B695A017B69134403F5106319463B699F
:103980005A017B69134403F510631B6923F0FF534D
:1039900023F4C0130B61BB685A69BB689B689A42E9
:1039A00003D9BB689A68BB685A613B695A017B6955
:1039B000134403F5106319463B695A017B691344AC
:1039C00003F510631B6943F400230B613B695A0143
:1039D0007B69134403F5106319463B695A017B69FF
:1039E000134403F510631A69BB685B69C3F31203E0
:1039F00013430B61FB79012B1FD1BB681B69002BA3
:103A000009D03B695A017B69134403F510631A46D8
:103A1000BB681B6953613B695A017B69134403F519
:103A2000106319463B695A017B69134403F510631F
:103A30001B6843F004430B609AE03B695A017B69C1
:103A4000134403F5106319463B695A017B6913441B
:103A500003F510631B6843F004430B60BB685B69AC
:103A6000002B00F085807B6903F5006318467B69B5
:103A700003F500635A6BBB681B7803F00F03012149
:103A800001FA03F31343436372E03B695A017B6914
:103A9000134403F5306319463B695A017B691344AB
:103AA00003F530631B69DB0CDB040B613B695A01D6
:103AB0007B69134403F5306319463B695A017B69FE
:103AC000134403F530631B6923F0FF5323F4C01341
:103AD0000B61BB685B69002B03D0BB689A68BB684D
:103AE0005A613B695A017B69134403F530631946F7
:103AF0003B695A017B69134403F530631B6943F446
:103B000000230B613B695A017B69134403F5306361
:103B100019463B695A017B69134403F530631A69FE
:103B2000BB689B68C3F3120313430B61FB79012B42
:103B30000DD1BB68DB68002B09D03B695A017B695A
:103B4000134403F530631A46BB68DB6853613B6975
:103B50005A017B69134403F5306319463B695A01E6
:103B60007B69134403F530631B6843F004430B6027
:103B7000002318461C37BD465DF8047B704780B4AF
:103B800089B000AFF860B96011461A460B46FB7168
:103B90001346BB80FB687B61BB68FB6197F82830EC
:103BA000002B1AD1BB8803339B083B610023BB6108
:103BB0000FE0FB791A037B69134403F580531A461F
:103BC000FB691B681360FB690433FB61BB6901334C
:103BD000BB61BA693B699A42EBD30023184624378C
:103BE000BD465DF8047B704780B489B000AFF860D3
:103BF000B9601346FB80FB687B61BB68FB61FB8897
:103C000003339B083B610023BB610BE07B6903F539
:103C100080531A68FB691A60FB690433FB61BB6956
:103C20000133BB61BA693B699A42EFD3FB6918461D
:103C30002437BD465DF8047B704780B485B000AF83
:103C4000786039607B68FB603B681B78BB603B68D1
:103C50005B78012B2ED1BB685A01FB68134403F536
:103C600010631B68002B13DBBB68002B10D0BB68F4
:103C70005A01FB68134403F510631946BB685A01E7
:103C8000FB68134403F510631B6823F080430B604B
:103C9000BB685A01FB68134403F510631946BB68FF
:103CA0005A01FB68134403F510631B6843F40013C7
:103CB0000B602DE0BB685A01FB68134403F53063C9
:103CC0001B68002B13DBBB68002B10D0BB685A01AC
:103CD000FB68134403F530631946BB685A01FB685F
:103CE000134403F530631B6823F080430B60BB680B
:103CF0005A01FB68134403F530631946BB685A0147
:103D0000FB68134403F530631B6843F400130B6036
:103D1000002318461437BD465DF8047B704780B415
:103D200085B000AF786039607B68FB603B681B78CA
:103D3000BB603B685B78012B2AD1BB685A01FB68EA
:103D4000134403F510631946BB685A01FB6813441A
:103D500003F510631B6823F400130B603B68DB78EA
:103D6000032B03D03B68DB78022B3BD1BB685A01A5
:103D7000FB68134403F510631946BB685A01FB68DE
:103D8000134403F510631B6843F080530B6029E074
:103D9000BB685A01FB68134403F530631946BB68DE
:103DA0005A01FB68134403F530631B6823F40013C6
:103DB0000B603B68DB78032B03D03B68DB78022B7E
:103DC00010D1BB685A01FB68134403F530631946F0
:103DD000BB685A01FB68134403F530631B6843F06A
:103DE00080530B60002318461437BD465DF8047BF2
:103DF000704780B485B000AF78600B46FB707B687D
:103E0000FB60FB6803F500631A46FB6803F500637B
:103E10001B6823F4FE631360FB6803F50063194617
:103E2000FB6803F500631A68FB781B0103F4FE636B
:103E300013430B60002318461437BD465DF8047B1E
:103E4000704780B584B000AF78607B68FB60FB682A
:103E500003F500631A46FB6803F500635B6823F013
:103E6000020353600320FCF77DFB00231846103744
:103E7000BD4680BD80B584B000AF78607B68FB60D4
:103E8000FB6803F500631A46FB6803F500635B6893
:103E900043F0020353600320FCF764FB0023184641
:103EA0001037BD4680BD80B485B000AF78607B68B8
:103EB0005B69FB607B689B69FA681340FB60FB6889
:103EC00018461437BD465DF8047B704780B485B052
:103ED00000AF78607B68FB60FB6803F500639B695B
:103EE000BB60FB6803F50063DB69BA681340BB6025
:103EF000BB681B0C18461437BD465DF8047B704741
:103F000080B485B000AF78607B68FB60FB6803F528
:103F100000639B69BB60FB6803F50063DB69BA68FB
:103F20001340BB60BB689BB218461437BD465DF8B2
:103F3000047B704780B485B000AF78600B46FB709F
:103F40007B68FB60FB785A01FB68134403F5306320
:103F50009B68BB60FB6803F500635B69BA6813404C
:103F6000BB60BB6818461437BD465DF8047B7047DC
:103F700080B487B000AF78600B46FB707B687B61D4
:103F80007B6903F500631B693B617B6903F5006393
:103F90005B6BFB60FB7803F00F03FA6822FA03F314
:103FA000DB01DBB23A6913433B61FB785A017B6961
:103FB000134403F510639A683B691340BB60BB6808
:103FC00018461C37BD465DF8047B704780B483B04B
:103FD00000AF78607B685B6903F0010318460C371B
:103FE000BD465DF8047B704780B485B000AF786053
:103FF0007B68FB60FB6803F510631A46FB6803F5FA
:1040000010631B6823F4FF6323F007031360FB684E
:1040100003F500639B6803F00603042B0AD1FB68D9
:1040200003F510631A46FB6803F510631B6843F041
:1040300003031360FB6803F500631A46FB6803F58E
:1040400000635B6843F480735360002318461437A1
:10405000BD465DF8047B704780B487B000AFF86060
:104060000B467A60FB72FB687B61FB683C33043370
:104070001B683B613B69284A93420AD97B6903F577
:1040800030631B6803F00043B3F1004F01D10023FC
:104090003BE07B6903F530631A46002313617B69BB
:1040A00003F530631A467B6903F530631B6943F4FB
:1040B000002313617B6903F530631A467B6903F5BE
:1040C00030631B6943F0180313617B6903F53063A8
:1040D0001A467B6903F530631B6943F0C0431361E3
:1040E000FB7A012B10D17B6903F530631A467B689C
:1040F00053617B6903F530631A467B6903F53063CE
:104100001B6843F080231360002318461C37BD460C
:104110005DF8047B704700BF0A30544F80B485B00F
:1041200000AF78600023FB60FB680133FB60FB6835
:10413000134A934201D903231BE07B681B69002BC0
:10414000F2DA0023FB607B681B6943F001027B68A5
:104150001A61FB680133FB60FB68094A934201D98D
:10416000032306E07B681B6903F00103012BF0D0F9
:10417000002318461437BD465DF8047B704700BF26
:10418000400D030080B584B000AF78600B46FB7033
:104190000023FB737B681B7C002B15D14FF400734D
:1041A00002228121786803F0F8FA7B680122DA6242
:1041B0004FF4007302220121786803F0EEFA7B6865
:1041C0000122C3F8582112E040230222812178689D
:1041D00003F0E3FA7B680122DA6240230222012124
:1041E000786803F0DAFA7B680122C3F858210823C3
:1041F00003228221786803F0D0FA7B6801221A64D6
:104200004FF4077003F07EFD03461A467B68C3F83F
:1042100090227B68D3F89032002B02D10123FB73EC
:1042200026E07B68D3F89032BB607B68D3F8943289
:104230001B689847BB680022C3F81422BB680022A1
:10424000C3F818227B681B7C002B09D1BB68D3F80C
:1042500004224FF400730121786803F08FFB07E01C
:10426000BB68D3F8042240230121786803F086FB61
:10427000FB7B18461037BD4680BD80B584B000AFCB
:1042800078600B46FB700023FB738121786803F094
:10429000AAFA7B680022DA620121786803F0A3FAA7
:1042A0007B680022C3F858218221786803F09BFACA
:1042B0007B6800221A647B68D3F89032002B0ED002
:1042C0007B68D3F894325B6898477B68D3F8903268
:1042D000184603F01FFD7B680022C3F89022FB7B89
:1042E00018461037BD4680BD80B586B000AF7860F7
:1042F00039607B68D3F890323B610023FB73002365
:10430000BB810023FB753B681B7803F06003002B27
:1043100039D0202B7CD13B68DB88002B29D03B682F
:104320001B785BB2002B11DA7B68D3F894329B6860
:104330003A68507839693A68D288984739693B6851
:10434000DB881A46786801F09BF968E03B685A7888
:104350003B6983F800223B68DB88DAB23B6983F86B
:10436000012239693B68DB881A46786801F0B6F9A2
:1043700055E07B68D3F894329B683A685078002205
:10438000396898474BE03B685B780A2B17D00B2BBA
:1043900029D0002B33D17B6893F87432032B07D1DB
:1043A00007F10C0302221946786801F069F92EE042
:1043B0003968786801F0F9F80223FB7527E07B681B
:1043C00093F87432032B07D107F10F03012219462A
:1043D000786801F055F91AE03968786801F0E5F875
:1043E0000223FB7513E07B6893F87432032B0DD026
:1043F0003968786801F0D9F80223FB7506E039685E
:10440000786801F0D2F80223FB7500E000BF06E0F7
:104410003968786801F0C9F80223FB7500BFFB7D9D
:1044200018461837BD4680BD80B584B000AF7860AF
:104430000B46FB707B68D3F89032FB607B68D3F847
:104440009832BB607B68D3F89032002B3AD0FA7870
:10445000796813469B0013449B000B441C331B6874
:10446000002B29D0FA78796813469B0013449B00EF
:104470000B441C331A68F978B8680B46DB005B1AEA
:104480009B00034444331B68B2FBF3F103FB01F3CD
:10449000D31A002B10D1FA78796813469B00134485
:1044A0009B000B441C3300221A60F9780023002281
:1044B000786803F040FA03E0FB680022C3F8142296
:1044C000002300E0022318461037BD4680BD80B5AA
:1044D00084B000AF78600B46FB707B68D3F89032F5
:1044E000FB60FB781946786803F06BFA0246FB68BC
:1044F000C3F80C227B68D3F89032002B0DD07B6878
:10450000D3F89432DB68FA68D2F80402FA6802F54C
:10451000037211469847002300E002231846103723
:10452000BD4680BD80B584B000AF78607B68D3F8AD
:104530009032FB607B68D3F89432002B15D0FB6877
:1045400093F80032FF2B10D07B68D3F894329B682D
:10455000FA6892F80002F968FA6892F8012292B2B9
:104560009847FB68FF2283F8002200231846103783
:10457000BD4680BD80B483B000AF78607B684322C5
:104580001A80034B18460C37BD465DF8047B704714
:104590008C00002080B483B000AF78607B68432239
:1045A0001A80034B18460C37BD465DF8047B7047F4
:1045B0004800002080B483B000AF78607B6843225D
:1045C0001A80034B18460C37BD465DF8047B7047D4
:1045D000D000002080B483B000AF78607B680A22EE
:1045E0001A80034B18460C37BD465DF8047B7047B4
:1045F0000400002080B485B000AF786039600223E9
:10460000FB733B68002B05D07B683A68C3F89422A3
:104610000023FB73FB7B18461437BD465DF8047B13
:10462000704780B487B000AFF860B9601346FB8074
:10463000FB68D3F890327B617B69BA68C3F80822C3
:10464000FA887B69C3F81022002318461C37BD4640
:104650005DF8047B704780B485B000AF7860396046
:104660007B68D3F89032FB60FB683A68C3F8042299
:10467000002318461437BD465DF8047B704780B5AB
:1046800084B000AF78607B68D3F89032FB607B68C1
:10469000D3F89032002B17D07B681B7C002B09D1FC
:1046A000FB68D3F804224FF400730121786803F00B
:1046B00065F907E0FB68D3F80422402301217868FC
:1046C00003F05CF9002300E0022318461037BD46D2
:1046D00080BD80B584B000AFF860B9601346FB714F
:1046E000FB68002B01D102231AE0FB68D3F88C325F
:1046F000002B03D0FB680022C3F88C22BB68002B80
:1047000003D0FB68BA68C3F88822FB68012283F8EB
:104710007422FB68FA791A70F86802F0D7FF002358
:1047200018461037BD4680BD80B485B000AF7860B4
:1047300039600023FB733B68002B06D07B683A6826
:10474000C3F88C220023FB7301E00223FB73FB7B85
:1047500018461437BD465DF8047B704780B582B0BB
:1047600000AF7860786802F0FDFF00231846083734
:10477000BD4680BD80B483B000AF7860002318468A
:104780000C37BD465DF8047B704780B584B000AF40
:1047900078600B46FB700223FB737B68D3F88C3286
:1047A000002B0CD07B68D3F88C321B68FA7811464A
:1047B000786898470346002B01D10023FB73FB7BED
:1047C00018461037BD4680BD80B582B000AF786016
:1047D0000B46FB707B68D3F88C325B68FA78114625
:1047E00078689847002318460837BD4680BD80B5D5
:1047F00082B000AF786039607B6803F52073396858
:10480000184600F095FE7B680122C3F86C227B6895
:10481000B3F886321A467B68C3F870227B6893F837
:10482000803203F01F03012B0CD0012B02D3022B8B
:1048300010D017E07B6803F520731946786800F004
:1048400005FA1AE07B6803F520731946786800F0D2
:1048500067FA12E07B6803F520731946786800F068
:10486000A5FA0AE07B6893F8803223F07F03DBB27D
:104870001946786802F0D6FF00BF002318460837B3
:10488000BD4680BD80B586B000AFF8600B467A604B
:10489000FB72FB7A002B4BD1FB6803F5A0737B61A5
:1048A000FB68D3F86C32032B34D17B69DA687B69FF
:1048B0001B699A4219D97B69DA687B691B69D21A2C
:1048C0007B69DA607B69DA687B691B699A4203D28B
:1048D0007B69DB689BB202E07B691B699BB21A466D
:1048E0007968F86800F018FF38E0FB68D3F88C327C
:1048F0001B69002B0AD0FB6893F87432032B05D197
:10490000FB68D3F88C321B69F8689847F86800F0A8
:1049100015FF23E0FB68D3F86C32052B1ED1FB6832
:104920000022C3F86C220021F86802F07BFF15E03A
:10493000FB68D3F88C329B69002B0DD0FB6893F891
:104940007432032B08D1FB68D3F88C329B69FA7A56
:104950001146F868984701E0022300E0002318465A
:104960001837BD4680BD80B586B000AFF8600B46F5
:104970007A60FB72FB7A002B7FD1FB6814337B617A
:10498000FB68D3F86C32022B5CD17B69DA687B69F7
:104990001B699A4215D97B69DA687B691B69D21A4F
:1049A0007B69DA607B69DB689BB21A467968F868D4
:1049B00000F082FE002300220021F86802F0DEFFF2
:1049C0004EE07B699B687A691269B3FBF2F102FBE6
:1049D00001F29B1A002B1CD17B699A687B691B69C9
:1049E0009A4216D37B699A68FB68D3F870329A4270
:1049F0000FD200220021F86800F05EFEFB68002262
:104A0000C3F87022002300220021F86802F0B6FFEC
:104A100026E0FB68D3F88C32DB68002B0AD0FB68F9
:104A200093F87432032B05D1FB68D3F88C32DB6822
:104A3000F86898478021F86802F0F4FEF86800F002
:104A400090FE0DE0FB68D3F86C32042B04D0FB68B9
:104A5000D3F86C32002B03D18021F86802F0E2FE1B
:104A6000FB6893F87832012B1DD1F868FFF782FEBE
:104A7000FB68002283F8782215E0FB68D3F88C32BB
:104A80005B69002B0DD0FB6893F87432032B08D1BF
:104A9000FB68D3F88C325B69FA7A1146F86898475C
:104AA00001E0022300E0002318461837BD4680BD10
:104AB00080B582B000AF7860402300220021786882
:104AC00002F06BFE7B680122C3F844217B68402220
:104AD000C3F85021402300228021786802F05DFE57
:104AE0007B6801229A617B6840225A627B680122BE
:104AF00083F874227B680022C3F86C227B68002252
:104B00005A607B680022C3F87C227B68D3F890321D
:104B1000002B09D07B68D3F88C325B687A685268C6
:104B2000D2B2114678689847002318460837BD4628
:104B300080BD80B483B000AF78600B46FB707B68AB
:104B4000FA781A74002318460C37BD465DF8047BCA
:104B5000704780B483B000AF78607B6893F87422AC
:104B60007B6883F875227B68042283F87422002313
:104B700018460C37BD465DF8047B704780B483B09F
:104B800000AF78607B6893F875227B6883F87422A5
:104B9000002318460C37BD465DF8047B704780B58E
:104BA00082B000AF78607B6893F87432032B0BD12E
:104BB0007B68D3F88C32DB69002B05D07B68D3F897
:104BC0008C32DB6978689847002318460837BD4661
:104BD00080BD80B483B000AF78600B46FB700023CB
:104BE00018460C37BD465DF8047B704780B483B02F
:104BF00000AF78600B46FB70002318460C37BD46AB
:104C00005DF8047B704780B483B000AF7860002308
:104C100018460C37BD465DF8047B704780B582B0FE
:104C200000AF78607B68012283F874227B68D3F838
:104C30008C325B687A685268D2B2114678689847BD
:104C4000002318460837BD4680BD000080B584B0FB
:104C500000AF786039600023FB733B681B7803F07A
:104C60006003202B04D0402B02D0002B08D04CE056
:104C70007B68D3F88C329B6839687868984749E03C
:104C80003B685B78092B3AD801A252F823F000BFA9
:104C9000E14C0008F54C0008FF4C0008EB4C000804
:104CA000FF4C0008C34C0008B94C0008FF4C00083A
:104CB000D74C0008CD4C00083968786800F0D2F96C
:104CC00022E03968786800F0C7FA1DE03968786832
:104CD00000F004FB18E03968786800F08DFB13E001
:104CE0003968786800F0BCFB0EE03968786800F03D
:104CF000EAFB09E03968786800F0F9FB04E03968FC
:104D0000786800F052FC00BF04E03968786800F071
:104D10004CFC00BFFB7B18461037BD4680BD00BF72
:104D200080B584B000AF786039600023FB733B68C6
:104D30001B7803F06003202B03D0402B01D0002B05
:104D40002AD17B6893F87432013B022B1DD83B6853
:104D50009B88DBB2012B13D87B68D3F88C329B681D
:104D60003968786898470346FB733B68DB88002BFB
:104D700010D1FB7B002B0DD1786800F0DFFC09E03F
:104D80003968786800F011FC04E03968786800F050
:104D90000CFC00E000BF04E03968786800F005FC16
:104DA00000BF002318461037BD4680BD80B584B0D3
:104DB00000AF786039600023FB733B689B88BB734E
:104DC0003B681B7803F06003202B04D0402B02D0FB
:104DD000002B08D03BE17B68D3F88C329B683968A4
:104DE0007868984738E13B681B7803F06003202B14
:104DF0000AD17B68D3F88C329B6839687868984709
:104E00000346FB73FB7B28E13B685B78012B3ED0BC
:104E1000032B02D0002B70D013E17B6893F874321F
:104E2000022B02D0032B15D02BE0BB7B002B0CD028
:104E3000BB7B802B09D0BB7B1946786802F0F2FC63
:104E40008021786802F0EEFC20E03968786800F094
:104E5000ACFB1BE03B685B88002B0ED1BB7B002BBF
:104E60000BD0BB7B802B08D03B68DB88002B04D1A8
:104E7000BB7B1946786802F0D5FC786800F05EFCD0
:104E800004E03968786800F090FB00BFDEE07B68E2
:104E900093F87432022B02D0032B15D026E0BB7B93
:104EA000002B0CD0BB7B802B09D0BB7B19467868CC
:104EB00002F0B8FC8021786802F0B4FC1CE039688C
:104EC000786800F072FB17E03B685B88002B12D11A
:104ED000BB7B03F07F03002B04D0BB7B19467868B3
:104EE00002F0BFFC786800F029FC04E039687868BB
:104EF00000F05BFB00E000BFA8E07B6893F8743231
:104F0000022B02D0032B31D095E0BB7B002B07D0C6
:104F1000BB7B802B04D03968786800F046FB8FE0BB
:104F200097F90E30002B0BDABB7B03F07F021346A0
:104F30009B0013449B0010337A68134404330AE047
:104F4000BB7B03F07F0213469B0013449B0003F5D9
:104F5000A0737A681344BB60BB6800221A60BB6808
:104F600002221946786800F08BFB69E097F90E3051
:104F7000002B11DABB7B03F00F02796813469B000C
:104F800013449B000B4418331B68002B17D139685E
:104F9000786800F00AFB53E0BB7B03F00F027968EE
:104FA00013469B0013449B000B4403F5A2731B683C
:104FB000002B04D13968786800F0F7FA40E097F9DF
:104FC0000E30002B0BDABB7B03F07F0213469B00F5
:104FD00013449B0010337A68134404330AE0BB7B0C
:104FE00003F07F0213469B0013449B0003F5A0735C
:104FF0007A681344BB60BB7B002B02D0BB7B802B49
:1050000003D1BB6800221A600EE0BB7B19467868AA
:1050100002F046FC0346002B03D0BB6801221A6055
:1050200002E0BB6800221A60BB6802221946786859
:1050300000F026FB04E03968786800F0B6FA00BF9B
:1050400004E03968786800F0B0FA00BF04E039681D
:10505000786800F0AAFA00BFFB7B18461037BD46FF
:1050600080BD000080B584B000AF786039603B68D7
:105070005B881B0A9BB2013B062B00F2C98001A290
:1050800052F823F0A1500008B9500008F950000868
:105090001152000811520008BD510008E3510008E8
:1050A0007B68D3F888321B687A68127C07F10A01A2
:1050B00010469847F860B0E07B681B7C002B0DD150
:1050C0007B68D3F88C329B6A07F10A021046984736
:1050D000F860FB68013302221A709EE07B68D3F807
:1050E0008C32DB6A07F10A0210469847F860FB68C9
:1050F000013302221A7090E03B685B88DBB2052B1B
:1051000056D801A252F823F0215100083951000865
:105110005151000869510008815100089951000857
:105120007B68D3F888325B687A68127C07F10A01E1
:1051300010469847F86040E07B68D3F888329B6857
:105140007A68127C07F10A0110469847F86034E04B
:105150007B68D3F88832DB687A68127C07F10A0131
:1051600010469847F86028E07B68D3F888321B69BE
:105170007A68127C07F10A0110469847F8601CE033
:105180007B68D3F888325B697A68127C07F10A0180
:1051900010469847F86010E07B68D3F888329B6926
:1051A0007A68127C07F10A0110469847F86004E01B
:1051B0003968786800F0F9F94BE02EE07B681B7CD9
:1051C000002B09D17B68D3F88C325B6B07F10A02A4
:1051D00010469847F86020E03968786800F0E5F9F3
:1051E00037E07B681B7C002B0DD17B68D3F88C32B9
:1051F0001B6B07F10A0210469847F860FB68013301
:1052000007221A7009E03968786800F0CEF920E0CA
:105210003968786800F0C9F91BE07B89002B11D050
:105220003B68DB88002B0DD03B68DA887B89934292
:1052300028BF13469BB27B817B891A46F968786840
:1052400000F01EFA3B68DB88002B02D1786800F082
:1052500075FA1037BD4680BD80B584B000AF786068
:1052600039603B689B88002B30D13B68DB88002B82
:105270002CD13B685B887F2B28D83B685B88DBB2EE
:1052800003F07F03FB737B6893F87432032B04D124
:105290003968786800F089F91CE07B68FA7B83F84C
:1052A0007622FB7B1946786802F026FB786800F0CE
:1052B00045FAFB7B002B04D07B68022283F8742222
:1052C00008E07B68012283F8742203E0396878687B
:1052D00000F06BF900BF1037BD4680BD80B582B0CD
:1052E00000AF786039603B685B88DAB2414B1A7076
:1052F000404B1B78012B04D93968786800F055F9C8
:1053000075E07B6893F87432022B02D0032B23D014
:1053100062E0384B1B78002B1AD0364B1B781A46AC
:105320007B685A607B68032283F87422314B1B78B8
:1053300019467868FFF729FA0346022B04D1396829
:10534000786800F032F952E0786800F0F7F94EE042
:10535000786800F0F3F94AE0264B1B78002B12D155
:105360007B68022283F87422224B1B781A467B68E2
:105370005A60204B1B7819467868FFF725FA786841
:1053800000F0DCF933E01B4B1B781A467B685B6846
:105390009A421DD07B685B68DBB219467868FFF7DC
:1053A00013FA144B1B781A467B685A60114B1B7812
:1053B00019467868FFF7E9F90346022B04D13968EA
:1053C000786800F0F2F812E0786800F0B7F90EE0C3
:1053D000786800F0B3F90AE03968786800F0E5F819
:1053E000044B1B7819467868FFF7EEF900BF0837C1
:1053F000BD4680BDFC01002080B582B000AF786062
:1054000039603B68DB88012B04D03968786800F08C
:10541000CCF821E07B6893F87432012B17DB022B68
:1054200002DD032B0BD012E07B6800229A607B68C0
:10543000083301221946786800F022F90CE07B68F5
:10544000043301221946786800F01AF904E039683B
:10545000786800F0AAF800BF00BF0837BD4680BDDD
:1054600080B582B000AF786039607B6893F87432A1
:10547000013B022B1ED83B68DB88022B04D0396825
:10548000786800F092F81AE07B680122DA607B68A5
:10549000D3F87C32002B05D07B68DB6843F0020236
:1054A0007B68DA607B680C3302221946786800F06A
:1054B000E7F804E03968786800F077F800BF00BFCB
:1054C0000837BD4680BD80B582B000AF78603960D6
:1054D0003B685B88012B06D17B680122C3F87C22E4
:1054E000786800F02BF900BF0837BD4680BD80B555
:1054F00082B000AF786039607B6893F87432013B0A
:10550000022B0BD83B685B88012B0CD17B680022F7
:10551000C3F87C22786800F011F904E039687868F3
:1055200000F043F800E000BF00BF0837BD4680BD73
:1055300080B483B000AF786039603B681A787B68CC
:105540001A703B685A787B685A703B6802331B7844
:105550009AB23B6803331B789BB21B029BB2134485
:105560009AB27B685A803B6804331B789AB23B68D6
:1055700005331B789BB21B029BB213449AB27B6823
:105580009A803B6806331B789AB23B6807331B78D6
:105590009BB21B029BB213449AB27B68DA8000BFB5
:1055A0000C37BD465DF8047B704780B582B000AF14
:1055B000786039608021786802F034F900217868D9
:1055C00002F030F900BF0837BD4680BD80B586B017
:1055D00000AFF860B9607A600023FB75FB68002BB0
:1055E00032D0F86800F034F8034601339BB25B0018
:1055F0009AB27B681A80FB7D5A1CFA751A46BB6802
:1056000013447A6812781A70FB7D5A1CFA751A4690
:10561000BB68134403221A7012E0FB7D5A1CFA7512
:105620001A46BB681A44FB68591CF9601B78137052
:10563000FB7D5A1CFA751A46BB68134400221A7087
:10564000FB681B78002BE8D100BF1837BD4680BD32
:1056500080B485B000AF78600023FB7305E0FB7B6E
:105660000133FB737B6801337B607B681B78002B05
:10567000F5D1FB7B18461437BD465DF8047B7047B7
:1056800080B584B000AFF860B9601346FB80FB685A
:105690000222C3F86C22FA88FB68DA61FA88FB6898
:1056A0001A62FB88BA680021F86802F044F9002306
:1056B00018461037BD4680BD80B584B000AFF86095
:1056C000B9601346FB80FB88BA680021F86802F0D5
:1056D00032F9002318461037BD4680BD80B584B02E
:1056E00000AFF860B9601346FB80FB680322C3F883
:1056F0006C22FA88FB68C3F84821FA88FB68C3F873
:105700004C21FB88BA680021F86802F037F90023C1
:1057100018461037BD4680BD80B584B000AFF86034
:10572000B9601346FB80FB88BA680021F86802F074
:1057300025F9002318461037BD4680BD80B582B0DC
:1057400000AF78607B680422C3F86C22002300223B
:105750000021786802F0EFF8002318460837BD46AC
:1057600080BD80B582B000AF78607B680522C3F849
:105770006C22002300220021786802F0FFF8002349
:1057800018460837BD4680BD80B485B000AF0346DB
:10579000FB800023FB60B7F90630842B05D0B7F9F6
:1057A0000620FB6813440333FB60FB68184614377C
:1057B000BD465DF8047B704780B500AF00F0AAFEDF
:1057C0000023184680BDF0B589B004AF7860396019
:1057D0007B685B69002B20D07B689B69002B1CD009
:1057E0007B685C687B681D687B681E697B68B3F9B1
:1057F00008301846FFF7C8FF01467B685B697A6886
:1058000092690292019300913B68324629462046F4
:1058100000F0C6FC0346FB601CE07B685C687B68AC
:105820001D687B681B699EB27B68B3F90830184617
:10583000FFF7AAFF024607F10C03019300923B68B1
:1058400032462946204600F004FD0346012B01D0D4
:10585000002300E0FB6818461437BD46F0BD80B554
:1058600084B000AF78607B68FB60FB68002B01D0E0
:10587000FB6800E00123184600F018FE00231846DC
:105880001037BD4680BD80B483B000AF78607B68C0
:1058900003F108027B685A607B684FF0FF329A6020
:1058A0007B6803F108027B68DA607B6803F1080219
:1058B0007B681A617B6800221A6000BF0C37BD4606
:1058C0005DF8047B704780B483B000AF78607B687C
:1058D00000221A6100BF0C37BD465DF8047B70479B
:1058E00080B485B000AF786039607B685B68FB602E
:1058F0003B68FA685A60FB689A683B689A60FB6884
:105900009B683A685A60FB683A689A603B687A68B4
:105910001A617B681B685A1C7B681A6000BF1437C9
:10592000BD465DF8047B704780B485B000AF7860F9
:1059300039603B681B68BB60BB68B3F1FF3F03D1B4
:105940007B681B69FB600CE07B680833FB6002E04E
:10595000FB685B68FB60FB685B681A68BB689A421F
:10596000F6D9FB685A683B685A603B685B683A68DE
:105970009A603B68FA689A60FB683A685A603B68CC
:105980007A681A617B681B685A1C7B681A6000BFC2
:105990001437BD465DF8047B704780B485B000AF16
:1059A00078607B681B69FB607B685B687A689268DB
:1059B0009A607B689B687A6852685A60FB685A688C
:1059C0007B689A4203D17B689A68FB685A607B685F
:1059D00000221A61FB681B685A1EFB681A60FB688C
:1059E0001B6818461437BD465DF8047B70470000FD
:1059F00080B485B000AFF860B9607A60FB68043BA2
:105A0000FB60FB684FF080721A60FB68043BFB6030
:105A1000BB6823F00102FB681A60FB68043BFB6073
:105A20000C4AFB681A60FB68143BFB607A68FB68F1
:105A30001A60FB68043BFB60FB686FF002021A60AF
:105A4000FB68203BFB60FB6818461437BD465DF8D9
:105A5000047B7047595A000880B485B000AF00231A
:105A60007B60114B1B68B3F1FF3F09D04FF050032F
:105A700083F31188BFF36F8FBFF34F8FFB60FEE797
:105A80004FF0500383F31188BFF36F8FBFF34F8F35
:105A9000BB6000BF7B68002BFCD000BF1437BD4645
:105AA0005DF8047B704700BF140100200000000077
:105AB000074B19680868B0E8F04F80F30988BFF316
:105AC0006F8F4FF0000080F311887047AFF30080B4
:105AD0001C3E002000BF00BF08480068006880F33B
